{
  "_format": "hh-sol-artifact-1",
  "contractName": "ContractSign",
  "sourceName": "contracts/ContractSign.sol",
  "abi": [
    {
      "anonymous": false,
      "inputs": [
        {
          "indexed": true,
          "internalType": "address",
          "name": "contractSigner",
          "type": "address"
        },
        {
          "indexed": true,
          "internalType": "string",
          "name": "ipfsHash",
          "type": "string"
        }
      ],
      "name": "Signed",
      "type": "event"
    },
    {
      "inputs": [
        {
          "internalType": "string",
          "name": "_ipfsHash",
          "type": "string"
        }
      ],
      "name": "sign",
      "outputs": [],
      "stateMutability": "nonpayable",
      "type": "function"
    }
  ],
  "bytecode": "0x608060405234801561001057600080fd5b506101c8806100206000396000f3fe608060405234801561001057600080fd5b506004361061002b5760003560e01c806379d6348d14610030575b600080fd5b61004a600480360381019061004591906100f5565b61004c565b005b818160405161005c92919061015f565b60405180910390203373ffffffffffffffffffffffffffffffffffffffff167fc1fd59151623264943a9bf66321cf490ff1fae40a4d2c0dc7f1953c674a59b3960405160405180910390a35050565b60008083601f8401126100bd57600080fd5b8235905067ffffffffffffffff8111156100d657600080fd5b6020830191508360018202830111156100ee57600080fd5b9250929050565b6000806020838503121561010857600080fd5b600083013567ffffffffffffffff81111561012257600080fd5b61012e858286016100ab565b92509250509250929050565b60006101468385610178565b9350610153838584610183565b82840190509392505050565b600061016c82848661013a565b91508190509392505050565b600081905092915050565b8281833760008383015250505056fea2646970667358221220ff797fca4e93e382e2ed032a8fbc95d9cda2dc99207a0ade84117e53378fb46f64736f6c63430008000033",
  "linkReferences": {},
  "deployedLinkReferences": {}
}